{
  "contractName": "Validators",
  "abi": [
    {
      "inputs": [
        {
          "internalType": "string",
          "name": "nam",
          "type": "string"
        },
        {
          "internalType": "string",
          "name": "inst",
          "type": "string"
        }
      ],
      "stateMutability": "nonpayable",
      "type": "constructor"
    },
    {
      "inputs": [
        {
          "internalType": "address",
          "name": "",
          "type": "address"
        }
      ],
      "name": "studentCredentials",
      "outputs": [
        {
          "internalType": "string",
          "name": "name",
          "type": "string"
        },
        {
          "internalType": "string",
          "name": "institution",
          "type": "string"
        },
        {
          "internalType": "bytes32",
          "name": "file_hash",
          "type": "bytes32"
        },
        {
          "internalType": "string",
          "name": "accountcreate",
          "type": "string"
        }
      ],
      "stateMutability": "view",
      "type": "function",
      "constant": true
    },
    {
      "inputs": [
        {
          "internalType": "address",
          "name": "",
          "type": "address"
        }
      ],
      "name": "val",
      "outputs": [
        {
          "internalType": "string",
          "name": "name",
          "type": "string"
        },
        {
          "internalType": "string",
          "name": "institution",
          "type": "string"
        },
        {
          "internalType": "bool",
          "name": "isadmin",
          "type": "bool"
        }
      ],
      "stateMutability": "view",
      "type": "function",
      "constant": true
    },
    {
      "inputs": [
        {
          "internalType": "address",
          "name": "addr",
          "type": "address"
        },
        {
          "internalType": "string",
          "name": "nam",
          "type": "string"
        }
      ],
      "name": "addValidator",
      "outputs": [],
      "stateMutability": "nonpayable",
      "type": "function"
    },
    {
      "inputs": [
        {
          "internalType": "address",
          "name": "ad",
          "type": "address"
        },
        {
          "internalType": "string",
          "name": "nam",
          "type": "string"
        },
        {
          "internalType": "string",
          "name": "inst",
          "type": "string"
        },
        {
          "internalType": "bytes32",
          "name": "file_has",
          "type": "bytes32"
        }
      ],
      "name": "addCredentials",
      "outputs": [],
      "stateMutability": "nonpayable",
      "type": "function"
    },
    {
      "inputs": [
        {
          "internalType": "address",
          "name": "studentAddr",
          "type": "address"
        }
      ],
      "name": "getStudent",
      "outputs": [
        {
          "internalType": "string",
          "name": "",
          "type": "string"
        },
        {
          "internalType": "string",
          "name": "",
          "type": "string"
        },
        {
          "internalType": "bytes32",
          "name": "",
          "type": "bytes32"
        },
        {
          "internalType": "string",
          "name": "",
          "type": "string"
        }
      ],
      "stateMutability": "view",
      "type": "function",
      "constant": true
    }
  ],
  "bytecode": "0x60806040523480156200001157600080fd5b506040516200149338038062001493833981810160405281019062000037919062000349565b6040518060600160405280838152602001828152602001600115158152506000803373ffffffffffffffffffffffffffffffffffffffff1673ffffffffffffffffffffffffffffffffffffffff1681526020019081526020016000206000820151816000019080519060200190620000b1929190620000fc565b506020820151816001019080519060200190620000d0929190620000fc565b5060408201518160020160006101000a81548160ff021916908315150217905550905050505062000432565b8280546200010a90620003fd565b90600052602060002090601f0160209004810192826200012e57600085556200017a565b82601f106200014957805160ff19168380011785556200017a565b828001600101855582156200017a579182015b82811115620001795782518255916020019190600101906200015c565b5b5090506200018991906200018d565b5090565b5b80821115620001a85760008160009055506001016200018e565b5090565b6000604051905090565b600080fd5b600080fd5b600080fd5b600080fd5b6000601f19601f8301169050919050565b7f4e487b7100000000000000000000000000000000000000000000000000000000600052604160045260246000fd5b6200021582620001ca565b810181811067ffffffffffffffff82111715620002375762000236620001db565b5b80604052505050565b60006200024c620001ac565b90506200025a82826200020a565b919050565b600067ffffffffffffffff8211156200027d576200027c620001db565b5b6200028882620001ca565b9050602081019050919050565b60005b83811015620002b557808201518184015260208101905062000298565b83811115620002c5576000848401525b50505050565b6000620002e2620002dc846200025f565b62000240565b905082815260208101848484011115620003015762000300620001c5565b5b6200030e84828562000295565b509392505050565b600082601f8301126200032e576200032d620001c0565b5b815162000340848260208601620002cb565b91505092915050565b60008060408385031215620003635762000362620001b6565b5b600083015167ffffffffffffffff811115620003845762000383620001bb565b5b620003928582860162000316565b925050602083015167ffffffffffffffff811115620003b657620003b5620001bb565b5b620003c48582860162000316565b9150509250929050565b7f4e487b7100000000000000000000000000000000000000000000000000000000600052602260045260246000fd5b600060028204905060018216806200041657607f821691505b6020821081036200042c576200042b620003ce565b5b50919050565b61105180620004426000396000f3fe608060405234801561001057600080fd5b50600436106100575760003560e01c8063447816fc1461005c57806363e2a2321461008f5780636b7b44d7146100ab578063d1f6722e146100de578063fc5fc64f14610110575b600080fd5b61007660048036038101906100719190610b34565b61012c565b6040516100869493929190610c13565b60405180910390f35b6100a960048036038101906100a49190610da2565b6102f4565b005b6100c560048036038101906100c09190610b34565b61050f565b6040516100d59493929190610c13565b60405180910390f35b6100f860048036038101906100f39190610b34565b610748565b60405161010793929190610e19565b60405180910390f35b61012a60048036038101906101259190610e8a565b61088f565b005b600160205280600052604060002060009150905080600001805461014f90610f58565b80601f016020809104026020016040519081016040528092919081815260200182805461017b90610f58565b80156101c85780601f1061019d576101008083540402835291602001916101c8565b820191906000526020600020905b8154815290600101906020018083116101ab57829003601f168201915b5050505050908060010180546101dd90610f58565b80601f016020809104026020016040519081016040528092919081815260200182805461020990610f58565b80156102565780601f1061022b57610100808354040283529160200191610256565b820191906000526020600020905b81548152906001019060200180831161023957829003601f168201915b50505050509080600201549080600301805461027190610f58565b80601f016020809104026020016040519081016040528092919081815260200182805461029d90610f58565b80156102ea5780601f106102bf576101008083540402835291602001916102ea565b820191906000526020600020905b8154815290600101906020018083116102cd57829003601f168201915b5050505050905084565b600115156000803373ffffffffffffffffffffffffffffffffffffffff1673ffffffffffffffffffffffffffffffffffffffff16815260200190815260200160002060020160009054906101000a900460ff16151514610389576040517f08c379a000000000000000000000000000000000000000000000000000000000815260040161038090610ffb565b60405180910390fd5b60405180606001604052808281526020016000803373ffffffffffffffffffffffffffffffffffffffff1673ffffffffffffffffffffffffffffffffffffffff16815260200190815260200160002060010180546103e690610f58565b80601f016020809104026020016040519081016040528092919081815260200182805461041290610f58565b801561045f5780601f106104345761010080835404028352916020019161045f565b820191906000526020600020905b81548152906001019060200180831161044257829003601f168201915b50505050508152602001600115158152506000808473ffffffffffffffffffffffffffffffffffffffff1673ffffffffffffffffffffffffffffffffffffffff16815260200190815260200160002060008201518160000190805190602001906104ca929190610a1f565b5060208201518160010190805190602001906104e7929190610a1f565b5060408201518160020160006101000a81548160ff0219169083151502179055509050505050565b606080600060606000600160008773ffffffffffffffffffffffffffffffffffffffff1673ffffffffffffffffffffffffffffffffffffffff16815260200190815260200160002060405180608001604052908160008201805461057290610f58565b80601f016020809104026020016040519081016040528092919081815260200182805461059e90610f58565b80156105eb5780601f106105c0576101008083540402835291602001916105eb565b820191906000526020600020905b8154815290600101906020018083116105ce57829003601f168201915b5050505050815260200160018201805461060490610f58565b80601f016020809104026020016040519081016040528092919081815260200182805461063090610f58565b801561067d5780601f106106525761010080835404028352916020019161067d565b820191906000526020600020905b81548152906001019060200180831161066057829003601f168201915b50505050508152602001600282015481526020016003820180546106a090610f58565b80601f01602080910402602001604051908101604052809291908181526020018280546106cc90610f58565b80156107195780601f106106ee57610100808354040283529160200191610719565b820191906000526020600020905b8154815290600101906020018083116106fc57829003601f168201915b505050505081525050905080600001518160200151826040015183606001519450945094509450509193509193565b600060205280600052604060002060009150905080600001805461076b90610f58565b80601f016020809104026020016040519081016040528092919081815260200182805461079790610f58565b80156107e45780601f106107b9576101008083540402835291602001916107e4565b820191906000526020600020905b8154815290600101906020018083116107c757829003601f168201915b5050505050908060010180546107f990610f58565b80601f016020809104026020016040519081016040528092919081815260200182805461082590610f58565b80156108725780601f1061084757610100808354040283529160200191610872565b820191906000526020600020905b81548152906001019060200180831161085557829003601f168201915b5050505050908060020160009054906101000a900460ff16905083565b600115156000803373ffffffffffffffffffffffffffffffffffffffff1673ffffffffffffffffffffffffffffffffffffffff16815260200190815260200160002060020160009054906101000a900460ff16151514610924576040517f08c379a000000000000000000000000000000000000000000000000000000000815260040161091b90610ffb565b60405180910390fd5b82600160008673ffffffffffffffffffffffffffffffffffffffff1673ffffffffffffffffffffffffffffffffffffffff168152602001908152602001600020600001908051906020019061097a929190610a1f565b5081600160008673ffffffffffffffffffffffffffffffffffffffff1673ffffffffffffffffffffffffffffffffffffffff16815260200190815260200160002060010190805190602001906109d1929190610a1f565b5080600160008673ffffffffffffffffffffffffffffffffffffffff1673ffffffffffffffffffffffffffffffffffffffff1681526020019081526020016000206002018190555050505050565b828054610a2b90610f58565b90600052602060002090601f016020900481019282610a4d5760008555610a94565b82601f10610a6657805160ff1916838001178555610a94565b82800160010185558215610a94579182015b82811115610a93578251825591602001919060010190610a78565b5b509050610aa19190610aa5565b5090565b5b80821115610abe576000816000905550600101610aa6565b5090565b6000604051905090565b600080fd5b600080fd5b600073ffffffffffffffffffffffffffffffffffffffff82169050919050565b6000610b0182610ad6565b9050919050565b610b1181610af6565b8114610b1c57600080fd5b50565b600081359050610b2e81610b08565b92915050565b600060208284031215610b4a57610b49610acc565b5b6000610b5884828501610b1f565b91505092915050565b600081519050919050565b600082825260208201905092915050565b60005b83811015610b9b578082015181840152602081019050610b80565b83811115610baa576000848401525b50505050565b6000601f19601f8301169050919050565b6000610bcc82610b61565b610bd68185610b6c565b9350610be6818560208601610b7d565b610bef81610bb0565b840191505092915050565b6000819050919050565b610c0d81610bfa565b82525050565b60006080820190508181036000830152610c2d8187610bc1565b90508181036020830152610c418186610bc1565b9050610c506040830185610c04565b8181036060830152610c628184610bc1565b905095945050505050565b600080fd5b600080fd5b7f4e487b7100000000000000000000000000000000000000000000000000000000600052604160045260246000fd5b610caf82610bb0565b810181811067ffffffffffffffff82111715610cce57610ccd610c77565b5b80604052505050565b6000610ce1610ac2565b9050610ced8282610ca6565b919050565b600067ffffffffffffffff821115610d0d57610d0c610c77565b5b610d1682610bb0565b9050602081019050919050565b82818337600083830152505050565b6000610d45610d4084610cf2565b610cd7565b905082815260208101848484011115610d6157610d60610c72565b5b610d6c848285610d23565b509392505050565b600082601f830112610d8957610d88610c6d565b5b8135610d99848260208601610d32565b91505092915050565b60008060408385031215610db957610db8610acc565b5b6000610dc785828601610b1f565b925050602083013567ffffffffffffffff811115610de857610de7610ad1565b5b610df485828601610d74565b9150509250929050565b60008115159050919050565b610e1381610dfe565b82525050565b60006060820190508181036000830152610e338186610bc1565b90508181036020830152610e478185610bc1565b9050610e566040830184610e0a565b949350505050565b610e6781610bfa565b8114610e7257600080fd5b50565b600081359050610e8481610e5e565b92915050565b60008060008060808587031215610ea457610ea3610acc565b5b6000610eb287828801610b1f565b945050602085013567ffffffffffffffff811115610ed357610ed2610ad1565b5b610edf87828801610d74565b935050604085013567ffffffffffffffff811115610f0057610eff610ad1565b5b610f0c87828801610d74565b9250506060610f1d87828801610e75565b91505092959194509250565b7f4e487b7100000000000000000000000000000000000000000000000000000000600052602260045260246000fd5b60006002820490506001821680610f7057607f821691505b602082108103610f8357610f82610f29565b5b50919050565b7f54686573652066756e6374696f6e732063616e206f6e6c79206265206163636560008201527f73736564206279207468652076616c696461746f727300000000000000000000602082015250565b6000610fe5603683610b6c565b9150610ff082610f89565b604082019050919050565b6000602082019050818103600083015261101481610fd8565b905091905056fea2646970667358221220520895e424702b8915f7cb6f626b425fab1db463f4345be15170dd84f9b3821164736f6c634300080d0033",
  "immutableReferences": {},
  "source": "//SPDX-License-Identifier: MIT\r\npragma solidity ^0.8.0;\r\n\r\ncontract Validators{\r\n    struct validator{\r\n        string name;\r\n        string institution;\r\n        bool isadmin;\r\n    }\r\n\r\n    struct student{\r\n        string name;\r\n        string institution;\r\n        bytes32 file_hash;\r\n        string accountcreate;\r\n    }\r\n\r\n    mapping (address=>validator) public  val;\r\n    mapping (address=>student) public  studentCredentials;     \r\n\r\n    constructor(string memory nam, string memory inst){\r\n        // val[msg.sender].name=nam;\r\n        // val[msg.sender].isadmin=true;\r\n        // val[msg.sender].institution=inst;\r\n        val[msg.sender]=validator({\r\n            name : nam,\r\n            isadmin : true,\r\n            institution : inst\r\n        });\r\n    }\r\n\r\n    modifier isValidator(){\r\n        require(val[msg.sender].isadmin==true,\"These functions can only be accessed by the validators\");\r\n        _;\r\n    }\r\n    \r\n    // modifier sameInstitute(string memory inst ){\r\n    //     require(keccak256(abi.encodePacked(inst)) == keccak256(abi.encodePacked(val[msg.sender].institution)),\r\n    //         \"Should be from the same institute\");\r\n    //     _;\r\n    // }\r\n\r\n    function addValidator(address addr, string memory nam) public isValidator {\r\n        // val[addr].name=nam;\r\n        // val[addr].isadmin=true;\r\n        // val[addr].institution=val[msg.sender].institution;\r\n        val[addr]=validator({\r\n            name : nam,\r\n            isadmin : true,\r\n            institution : val[msg.sender].institution\r\n        });\r\n    }\r\n    \r\n    function addCredentials(address ad,string memory nam , string memory inst , bytes32 file_has)public isValidator{\r\n            \r\n        studentCredentials[ad].name = nam;\r\n        studentCredentials[ad].institution = inst;\r\n        studentCredentials[ad].file_hash = file_has;\r\n            \r\n    }\r\n\r\n    function getStudent(address studentAddr) public view returns (string memory, string memory, bytes32, string memory) {\r\n        student memory s = studentCredentials[studentAddr];\r\n        return (s.name, s.institution, s.file_hash, s.accountcreate);\r\n    }\r\n\r\n}",
  "sourcePath": "C:\\Users\\gost2\\OneDrive\\Desktop\\BlockChain\\contracts\\Validators.sol",
  "compiler": {
    "name": "solc",
    "version": "0.8.13+commit.abaa5c0e.Emscripten.clang"
  },
  "schemaVersion": "3.4.16",
  "updatedAt": "2025-01-17T14:59:46.382Z",
  "networkType": "ethereum",
  "devdoc": {
    "kind": "dev",
    "methods": {},
    "version": 1
  },
  "userdoc": {
    "kind": "user",
    "methods": {},
    "version": 1
  }
}