{
  "contractName": "Validators",
  "abi": [
    {
      "inputs": [
        {
          "internalType": "string",
          "name": "nam",
          "type": "string"
        },
        {
          "internalType": "string",
          "name": "inst",
          "type": "string"
        }
      ],
      "stateMutability": "nonpayable",
      "type": "constructor"
    },
    {
      "inputs": [
        {
          "internalType": "address",
          "name": "",
          "type": "address"
        }
      ],
      "name": "studentCredentials",
      "outputs": [
        {
          "internalType": "string",
          "name": "name",
          "type": "string"
        },
        {
          "internalType": "string",
          "name": "institution",
          "type": "string"
        },
        {
          "internalType": "string",
          "name": "file_link",
          "type": "string"
        },
        {
          "internalType": "string",
          "name": "accountcreate",
          "type": "string"
        }
      ],
      "stateMutability": "view",
      "type": "function",
      "constant": true
    },
    {
      "inputs": [
        {
          "internalType": "address",
          "name": "",
          "type": "address"
        }
      ],
      "name": "val",
      "outputs": [
        {
          "internalType": "string",
          "name": "name",
          "type": "string"
        },
        {
          "internalType": "string",
          "name": "institution",
          "type": "string"
        },
        {
          "internalType": "bool",
          "name": "isadmin",
          "type": "bool"
        }
      ],
      "stateMutability": "view",
      "type": "function",
      "constant": true
    },
    {
      "inputs": [
        {
          "internalType": "address",
          "name": "addr",
          "type": "address"
        },
        {
          "internalType": "string",
          "name": "nam",
          "type": "string"
        }
      ],
      "name": "addValidator",
      "outputs": [],
      "stateMutability": "nonpayable",
      "type": "function"
    },
    {
      "inputs": [
        {
          "internalType": "address",
          "name": "ad",
          "type": "address"
        },
        {
          "internalType": "string",
          "name": "nam",
          "type": "string"
        },
        {
          "internalType": "string",
          "name": "inst",
          "type": "string"
        },
        {
          "internalType": "string",
          "name": "file_lin",
          "type": "string"
        }
      ],
      "name": "addCredentials",
      "outputs": [],
      "stateMutability": "nonpayable",
      "type": "function"
    },
    {
      "inputs": [
        {
          "internalType": "address",
          "name": "studentAddr",
          "type": "address"
        }
      ],
      "name": "getStudent",
      "outputs": [
        {
          "internalType": "string",
          "name": "",
          "type": "string"
        },
        {
          "internalType": "string",
          "name": "",
          "type": "string"
        },
        {
          "internalType": "string",
          "name": "",
          "type": "string"
        },
        {
          "internalType": "string",
          "name": "",
          "type": "string"
        }
      ],
      "stateMutability": "view",
      "type": "function",
      "constant": true
    }
  ],
  "bytecode": "0x60806040523480156200001157600080fd5b506040516200159038038062001590833981810160405281019062000037919062000349565b6040518060600160405280838152602001828152602001600115158152506000803373ffffffffffffffffffffffffffffffffffffffff1673ffffffffffffffffffffffffffffffffffffffff1681526020019081526020016000206000820151816000019080519060200190620000b1929190620000fc565b506020820151816001019080519060200190620000d0929190620000fc565b5060408201518160020160006101000a81548160ff021916908315150217905550905050505062000432565b8280546200010a90620003fd565b90600052602060002090601f0160209004810192826200012e57600085556200017a565b82601f106200014957805160ff19168380011785556200017a565b828001600101855582156200017a579182015b82811115620001795782518255916020019190600101906200015c565b5b5090506200018991906200018d565b5090565b5b80821115620001a85760008160009055506001016200018e565b5090565b6000604051905090565b600080fd5b600080fd5b600080fd5b600080fd5b6000601f19601f8301169050919050565b7f4e487b7100000000000000000000000000000000000000000000000000000000600052604160045260246000fd5b6200021582620001ca565b810181811067ffffffffffffffff82111715620002375762000236620001db565b5b80604052505050565b60006200024c620001ac565b90506200025a82826200020a565b919050565b600067ffffffffffffffff8211156200027d576200027c620001db565b5b6200028882620001ca565b9050602081019050919050565b60005b83811015620002b557808201518184015260208101905062000298565b83811115620002c5576000848401525b50505050565b6000620002e2620002dc846200025f565b62000240565b905082815260208101848484011115620003015762000300620001c5565b5b6200030e84828562000295565b509392505050565b600082601f8301126200032e576200032d620001c0565b5b815162000340848260208601620002cb565b91505092915050565b60008060408385031215620003635762000362620001b6565b5b600083015167ffffffffffffffff811115620003845762000383620001bb565b5b620003928582860162000316565b925050602083015167ffffffffffffffff811115620003b657620003b5620001bb565b5b620003c48582860162000316565b9150509250929050565b7f4e487b7100000000000000000000000000000000000000000000000000000000600052602260045260246000fd5b600060028204905060018216806200041657607f821691505b6020821081036200042c576200042b620003ce565b5b50919050565b61114e80620004426000396000f3fe608060405234801561001057600080fd5b50600436106100575760003560e01c8063447816fc1461005c57806363e2a2321461008f5780636b7b44d7146100ab578063d1f6722e146100de578063d71f318014610110575b600080fd5b61007660048036038101906100719190610c53565b61012c565b6040516100869493929190610d19565b60405180910390f35b6100a960048036038101906100a49190610eaf565b61037c565b005b6100c560048036038101906100c09190610c53565b610597565b6040516100d59493929190610d19565b60405180910390f35b6100f860048036038101906100f39190610c53565b610857565b60405161010793929190610f26565b60405180910390f35b61012a60048036038101906101259190610f6b565b61099e565b005b600160205280600052604060002060009150905080600001805461014f90611055565b80601f016020809104026020016040519081016040528092919081815260200182805461017b90611055565b80156101c85780601f1061019d576101008083540402835291602001916101c8565b820191906000526020600020905b8154815290600101906020018083116101ab57829003601f168201915b5050505050908060010180546101dd90611055565b80601f016020809104026020016040519081016040528092919081815260200182805461020990611055565b80156102565780601f1061022b57610100808354040283529160200191610256565b820191906000526020600020905b81548152906001019060200180831161023957829003601f168201915b50505050509080600201805461026b90611055565b80601f016020809104026020016040519081016040528092919081815260200182805461029790611055565b80156102e45780601f106102b9576101008083540402835291602001916102e4565b820191906000526020600020905b8154815290600101906020018083116102c757829003601f168201915b5050505050908060030180546102f990611055565b80601f016020809104026020016040519081016040528092919081815260200182805461032590611055565b80156103725780601f1061034757610100808354040283529160200191610372565b820191906000526020600020905b81548152906001019060200180831161035557829003601f168201915b5050505050905084565b600115156000803373ffffffffffffffffffffffffffffffffffffffff1673ffffffffffffffffffffffffffffffffffffffff16815260200190815260200160002060020160009054906101000a900460ff16151514610411576040517f08c379a0000000000000000000000000000000000000000000000000000000008152600401610408906110f8565b60405180910390fd5b60405180606001604052808281526020016000803373ffffffffffffffffffffffffffffffffffffffff1673ffffffffffffffffffffffffffffffffffffffff168152602001908152602001600020600101805461046e90611055565b80601f016020809104026020016040519081016040528092919081815260200182805461049a90611055565b80156104e75780601f106104bc576101008083540402835291602001916104e7565b820191906000526020600020905b8154815290600101906020018083116104ca57829003601f168201915b50505050508152602001600115158152506000808473ffffffffffffffffffffffffffffffffffffffff1673ffffffffffffffffffffffffffffffffffffffff1681526020019081526020016000206000820151816000019080519060200190610552929190610b3e565b50602082015181600101908051906020019061056f929190610b3e565b5060408201518160020160006101000a81548160ff0219169083151502179055509050505050565b6060806060806000600160008773ffffffffffffffffffffffffffffffffffffffff1673ffffffffffffffffffffffffffffffffffffffff1681526020019081526020016000206040518060800160405290816000820180546105f990611055565b80601f016020809104026020016040519081016040528092919081815260200182805461062590611055565b80156106725780601f1061064757610100808354040283529160200191610672565b820191906000526020600020905b81548152906001019060200180831161065557829003601f168201915b5050505050815260200160018201805461068b90611055565b80601f01602080910402602001604051908101604052809291908181526020018280546106b790611055565b80156107045780601f106106d957610100808354040283529160200191610704565b820191906000526020600020905b8154815290600101906020018083116106e757829003601f168201915b5050505050815260200160028201805461071d90611055565b80601f016020809104026020016040519081016040528092919081815260200182805461074990611055565b80156107965780601f1061076b57610100808354040283529160200191610796565b820191906000526020600020905b81548152906001019060200180831161077957829003601f168201915b505050505081526020016003820180546107af90611055565b80601f01602080910402602001604051908101604052809291908181526020018280546107db90611055565b80156108285780601f106107fd57610100808354040283529160200191610828565b820191906000526020600020905b81548152906001019060200180831161080b57829003601f168201915b505050505081525050905080600001518160200151826040015183606001519450945094509450509193509193565b600060205280600052604060002060009150905080600001805461087a90611055565b80601f01602080910402602001604051908101604052809291908181526020018280546108a690611055565b80156108f35780601f106108c8576101008083540402835291602001916108f3565b820191906000526020600020905b8154815290600101906020018083116108d657829003601f168201915b50505050509080600101805461090890611055565b80601f016020809104026020016040519081016040528092919081815260200182805461093490611055565b80156109815780601f1061095657610100808354040283529160200191610981565b820191906000526020600020905b81548152906001019060200180831161096457829003601f168201915b5050505050908060020160009054906101000a900460ff16905083565b600115156000803373ffffffffffffffffffffffffffffffffffffffff1673ffffffffffffffffffffffffffffffffffffffff16815260200190815260200160002060020160009054906101000a900460ff16151514610a33576040517f08c379a0000000000000000000000000000000000000000000000000000000008152600401610a2a906110f8565b60405180910390fd5b82600160008673ffffffffffffffffffffffffffffffffffffffff1673ffffffffffffffffffffffffffffffffffffffff1681526020019081526020016000206000019080519060200190610a89929190610b3e565b5081600160008673ffffffffffffffffffffffffffffffffffffffff1673ffffffffffffffffffffffffffffffffffffffff1681526020019081526020016000206001019080519060200190610ae0929190610b3e565b5080600160008673ffffffffffffffffffffffffffffffffffffffff1673ffffffffffffffffffffffffffffffffffffffff1681526020019081526020016000206002019080519060200190610b37929190610b3e565b5050505050565b828054610b4a90611055565b90600052602060002090601f016020900481019282610b6c5760008555610bb3565b82601f10610b8557805160ff1916838001178555610bb3565b82800160010185558215610bb3579182015b82811115610bb2578251825591602001919060010190610b97565b5b509050610bc09190610bc4565b5090565b5b80821115610bdd576000816000905550600101610bc5565b5090565b6000604051905090565b600080fd5b600080fd5b600073ffffffffffffffffffffffffffffffffffffffff82169050919050565b6000610c2082610bf5565b9050919050565b610c3081610c15565b8114610c3b57600080fd5b50565b600081359050610c4d81610c27565b92915050565b600060208284031215610c6957610c68610beb565b5b6000610c7784828501610c3e565b91505092915050565b600081519050919050565b600082825260208201905092915050565b60005b83811015610cba578082015181840152602081019050610c9f565b83811115610cc9576000848401525b50505050565b6000601f19601f8301169050919050565b6000610ceb82610c80565b610cf58185610c8b565b9350610d05818560208601610c9c565b610d0e81610ccf565b840191505092915050565b60006080820190508181036000830152610d338187610ce0565b90508181036020830152610d478186610ce0565b90508181036040830152610d5b8185610ce0565b90508181036060830152610d6f8184610ce0565b905095945050505050565b600080fd5b600080fd5b7f4e487b7100000000000000000000000000000000000000000000000000000000600052604160045260246000fd5b610dbc82610ccf565b810181811067ffffffffffffffff82111715610ddb57610dda610d84565b5b80604052505050565b6000610dee610be1565b9050610dfa8282610db3565b919050565b600067ffffffffffffffff821115610e1a57610e19610d84565b5b610e2382610ccf565b9050602081019050919050565b82818337600083830152505050565b6000610e52610e4d84610dff565b610de4565b905082815260208101848484011115610e6e57610e6d610d7f565b5b610e79848285610e30565b509392505050565b600082601f830112610e9657610e95610d7a565b5b8135610ea6848260208601610e3f565b91505092915050565b60008060408385031215610ec657610ec5610beb565b5b6000610ed485828601610c3e565b925050602083013567ffffffffffffffff811115610ef557610ef4610bf0565b5b610f0185828601610e81565b9150509250929050565b60008115159050919050565b610f2081610f0b565b82525050565b60006060820190508181036000830152610f408186610ce0565b90508181036020830152610f548185610ce0565b9050610f636040830184610f17565b949350505050565b60008060008060808587031215610f8557610f84610beb565b5b6000610f9387828801610c3e565b945050602085013567ffffffffffffffff811115610fb457610fb3610bf0565b5b610fc087828801610e81565b935050604085013567ffffffffffffffff811115610fe157610fe0610bf0565b5b610fed87828801610e81565b925050606085013567ffffffffffffffff81111561100e5761100d610bf0565b5b61101a87828801610e81565b91505092959194509250565b7f4e487b7100000000000000000000000000000000000000000000000000000000600052602260045260246000fd5b6000600282049050600182168061106d57607f821691505b6020821081036110805761107f611026565b5b50919050565b7f54686573652066756e6374696f6e732063616e206f6e6c79206265206163636560008201527f73736564206279207468652076616c696461746f727300000000000000000000602082015250565b60006110e2603683610c8b565b91506110ed82611086565b604082019050919050565b60006020820190508181036000830152611111816110d5565b905091905056fea2646970667358221220c8cce6862d5124b69b622c36a3be70cafac1e1d0dd72e68470d6599968f9629b64736f6c634300080d0033",
  "immutableReferences": {},
  "source": "//SPDX-License-Identifier: MIT\r\npragma solidity ^0.8.0;\r\n\r\ncontract Validators{\r\n    struct validator{\r\n        string name;\r\n        string institution;\r\n        bool isadmin;\r\n    }\r\n\r\n    struct student{\r\n        string name;\r\n        string institution;\r\n        string file_link;\r\n        string accountcreate;\r\n    }\r\n\r\n    mapping (address=>validator) public  val;\r\n    mapping (address=>student) public  studentCredentials;     \r\n\r\n    constructor(string memory nam, string memory inst){\r\n        val[msg.sender]=validator({\r\n            name : nam,\r\n            isadmin : true,\r\n            institution : inst\r\n        });\r\n    }\r\n\r\n    modifier isValidator(){\r\n        require(val[msg.sender].isadmin==true,\"These functions can only be accessed by the validators\");\r\n        _;\r\n    }\r\n    \r\n    // modifier sameInstitute(string memory inst ){\r\n    //     require(keccak256(abi.encodePacked(inst)) == keccak256(abi.encodePacked(val[msg.sender].institution)),\r\n    //         \"Should be from the same institute\");\r\n    //     _;\r\n    // }\r\n\r\n    function addValidator(address addr, string memory nam) public isValidator {\r\n        // val[addr].name=nam;\r\n        // val[addr].isadmin=true;\r\n        // val[addr].institution=val[msg.sender].institution;\r\n        val[addr]=validator({\r\n            name : nam,\r\n            isadmin : true,\r\n            institution : val[msg.sender].institution\r\n        });\r\n    }\r\n    \r\n    function addCredentials(address ad,string memory nam , string memory inst , string memory file_lin)public isValidator{\r\n            \r\n        studentCredentials[ad].name = nam;\r\n        studentCredentials[ad].institution = inst;\r\n        studentCredentials[ad].file_link = file_lin;\r\n            \r\n    }\r\n\r\n    function getStudent(address studentAddr) public view returns (string memory, string memory, string memory, string memory) {\r\n        student memory s = studentCredentials[studentAddr];\r\n        return (s.name, s.institution, s.file_link, s.accountcreate);\r\n    }\r\n\r\n}",
  "sourcePath": "C:\\Users\\gost2\\OneDrive\\Desktop\\BlockChain\\contracts\\Validators.sol",
  "compiler": {
    "name": "solc",
    "version": "0.8.13+commit.abaa5c0e.Emscripten.clang"
  },
  "schemaVersion": "3.4.16",
  "updatedAt": "2025-01-20T13:16:16.355Z",
  "networkType": "ethereum",
  "devdoc": {
    "kind": "dev",
    "methods": {},
    "version": 1
  },
  "userdoc": {
    "kind": "user",
    "methods": {},
    "version": 1
  }
}