{
  "contractName": "Validators",
  "abi": [
    {
      "inputs": [
        {
          "internalType": "string",
          "name": "nam",
          "type": "string"
        },
        {
          "internalType": "string",
          "name": "inst",
          "type": "string"
        }
      ],
      "stateMutability": "nonpayable",
      "type": "constructor"
    },
    {
      "inputs": [
        {
          "internalType": "address",
          "name": "addr",
          "type": "address"
        },
        {
          "internalType": "string",
          "name": "nam",
          "type": "string"
        }
      ],
      "name": "addValidator",
      "outputs": [],
      "stateMutability": "nonpayable",
      "type": "function"
    },
    {
      "inputs": [
        {
          "internalType": "address",
          "name": "ad",
          "type": "address"
        },
        {
          "internalType": "string",
          "name": "nam",
          "type": "string"
        },
        {
          "internalType": "string",
          "name": "inst",
          "type": "string"
        },
        {
          "internalType": "bytes32",
          "name": "file_has",
          "type": "bytes32"
        }
      ],
      "name": "addCredentials",
      "outputs": [],
      "stateMutability": "nonpayable",
      "type": "function"
    },
    {
      "inputs": [
        {
          "internalType": "address",
          "name": "studentAddr",
          "type": "address"
        }
      ],
      "name": "getStudent",
      "outputs": [
        {
          "internalType": "string",
          "name": "",
          "type": "string"
        },
        {
          "internalType": "string",
          "name": "",
          "type": "string"
        },
        {
          "internalType": "bytes32",
          "name": "",
          "type": "bytes32"
        },
        {
          "internalType": "string",
          "name": "",
          "type": "string"
        }
      ],
      "stateMutability": "view",
      "type": "function"
    }
  ],
  "bytecode": "0x60806040523480156200001157600080fd5b50604051620010a9380380620010a9833981810160405281019062000037919062000349565b6040518060600160405280838152602001828152602001600115158152506000803373ffffffffffffffffffffffffffffffffffffffff1673ffffffffffffffffffffffffffffffffffffffff1681526020019081526020016000206000820151816000019080519060200190620000b1929190620000fc565b506020820151816001019080519060200190620000d0929190620000fc565b5060408201518160020160006101000a81548160ff021916908315150217905550905050505062000432565b8280546200010a90620003fd565b90600052602060002090601f0160209004810192826200012e57600085556200017a565b82601f106200014957805160ff19168380011785556200017a565b828001600101855582156200017a579182015b82811115620001795782518255916020019190600101906200015c565b5b5090506200018991906200018d565b5090565b5b80821115620001a85760008160009055506001016200018e565b5090565b6000604051905090565b600080fd5b600080fd5b600080fd5b600080fd5b6000601f19601f8301169050919050565b7f4e487b7100000000000000000000000000000000000000000000000000000000600052604160045260246000fd5b6200021582620001ca565b810181811067ffffffffffffffff82111715620002375762000236620001db565b5b80604052505050565b60006200024c620001ac565b90506200025a82826200020a565b919050565b600067ffffffffffffffff8211156200027d576200027c620001db565b5b6200028882620001ca565b9050602081019050919050565b60005b83811015620002b557808201518184015260208101905062000298565b83811115620002c5576000848401525b50505050565b6000620002e2620002dc846200025f565b62000240565b905082815260208101848484011115620003015762000300620001c5565b5b6200030e84828562000295565b509392505050565b600082601f8301126200032e576200032d620001c0565b5b815162000340848260208601620002cb565b91505092915050565b60008060408385031215620003635762000362620001b6565b5b600083015167ffffffffffffffff811115620003845762000383620001bb565b5b620003928582860162000316565b925050602083015167ffffffffffffffff811115620003b657620003b5620001bb565b5b620003c48582860162000316565b9150509250929050565b7f4e487b7100000000000000000000000000000000000000000000000000000000600052602260045260246000fd5b600060028204905060018216806200041657607f821691505b6020821081036200042c576200042b620003ce565b5b50919050565b610c6780620004426000396000f3fe608060405234801561001057600080fd5b50600436106100415760003560e01c806363e2a232146100465780636b7b44d714610062578063fc5fc64f14610095575b600080fd5b610060600480360381019061005b91906108f0565b6100b1565b005b61007c6004803603810190610077919061094c565b6102cc565b60405161008c9493929190610a1a565b60405180910390f35b6100af60048036038101906100aa9190610aa0565b610505565b005b600115156000803373ffffffffffffffffffffffffffffffffffffffff1673ffffffffffffffffffffffffffffffffffffffff16815260200190815260200160002060020160009054906101000a900460ff16151514610146576040517f08c379a000000000000000000000000000000000000000000000000000000000815260040161013d90610bb1565b60405180910390fd5b60405180606001604052808281526020016000803373ffffffffffffffffffffffffffffffffffffffff1673ffffffffffffffffffffffffffffffffffffffff16815260200190815260200160002060010180546101a390610c00565b80601f01602080910402602001604051908101604052809291908181526020018280546101cf90610c00565b801561021c5780601f106101f15761010080835404028352916020019161021c565b820191906000526020600020905b8154815290600101906020018083116101ff57829003601f168201915b50505050508152602001600115158152506000808473ffffffffffffffffffffffffffffffffffffffff1673ffffffffffffffffffffffffffffffffffffffff1681526020019081526020016000206000820151816000019080519060200190610287929190610695565b5060208201518160010190805190602001906102a4929190610695565b5060408201518160020160006101000a81548160ff0219169083151502179055509050505050565b606080600060606000600160008773ffffffffffffffffffffffffffffffffffffffff1673ffffffffffffffffffffffffffffffffffffffff16815260200190815260200160002060405180608001604052908160008201805461032f90610c00565b80601f016020809104026020016040519081016040528092919081815260200182805461035b90610c00565b80156103a85780601f1061037d576101008083540402835291602001916103a8565b820191906000526020600020905b81548152906001019060200180831161038b57829003601f168201915b505050505081526020016001820180546103c190610c00565b80601f01602080910402602001604051908101604052809291908181526020018280546103ed90610c00565b801561043a5780601f1061040f5761010080835404028352916020019161043a565b820191906000526020600020905b81548152906001019060200180831161041d57829003601f168201915b505050505081526020016002820154815260200160038201805461045d90610c00565b80601f016020809104026020016040519081016040528092919081815260200182805461048990610c00565b80156104d65780601f106104ab576101008083540402835291602001916104d6565b820191906000526020600020905b8154815290600101906020018083116104b957829003601f168201915b505050505081525050905080600001518160200151826040015183606001519450945094509450509193509193565b600115156000803373ffffffffffffffffffffffffffffffffffffffff1673ffffffffffffffffffffffffffffffffffffffff16815260200190815260200160002060020160009054906101000a900460ff1615151461059a576040517f08c379a000000000000000000000000000000000000000000000000000000000815260040161059190610bb1565b60405180910390fd5b82600160008673ffffffffffffffffffffffffffffffffffffffff1673ffffffffffffffffffffffffffffffffffffffff16815260200190815260200160002060000190805190602001906105f0929190610695565b5081600160008673ffffffffffffffffffffffffffffffffffffffff1673ffffffffffffffffffffffffffffffffffffffff1681526020019081526020016000206001019080519060200190610647929190610695565b5080600160008673ffffffffffffffffffffffffffffffffffffffff1673ffffffffffffffffffffffffffffffffffffffff1681526020019081526020016000206002018190555050505050565b8280546106a190610c00565b90600052602060002090601f0160209004810192826106c3576000855561070a565b82601f106106dc57805160ff191683800117855561070a565b8280016001018555821561070a579182015b828111156107095782518255916020019190600101906106ee565b5b509050610717919061071b565b5090565b5b8082111561073457600081600090555060010161071c565b5090565b6000604051905090565b600080fd5b600080fd5b600073ffffffffffffffffffffffffffffffffffffffff82169050919050565b60006107778261074c565b9050919050565b6107878161076c565b811461079257600080fd5b50565b6000813590506107a48161077e565b92915050565b600080fd5b600080fd5b6000601f19601f8301169050919050565b7f4e487b7100000000000000000000000000000000000000000000000000000000600052604160045260246000fd5b6107fd826107b4565b810181811067ffffffffffffffff8211171561081c5761081b6107c5565b5b80604052505050565b600061082f610738565b905061083b82826107f4565b919050565b600067ffffffffffffffff82111561085b5761085a6107c5565b5b610864826107b4565b9050602081019050919050565b82818337600083830152505050565b600061089361088e84610840565b610825565b9050828152602081018484840111156108af576108ae6107af565b5b6108ba848285610871565b509392505050565b600082601f8301126108d7576108d66107aa565b5b81356108e7848260208601610880565b91505092915050565b6000806040838503121561090757610906610742565b5b600061091585828601610795565b925050602083013567ffffffffffffffff81111561093657610935610747565b5b610942858286016108c2565b9150509250929050565b60006020828403121561096257610961610742565b5b600061097084828501610795565b91505092915050565b600081519050919050565b600082825260208201905092915050565b60005b838110156109b3578082015181840152602081019050610998565b838111156109c2576000848401525b50505050565b60006109d382610979565b6109dd8185610984565b93506109ed818560208601610995565b6109f6816107b4565b840191505092915050565b6000819050919050565b610a1481610a01565b82525050565b60006080820190508181036000830152610a3481876109c8565b90508181036020830152610a4881866109c8565b9050610a576040830185610a0b565b8181036060830152610a6981846109c8565b905095945050505050565b610a7d81610a01565b8114610a8857600080fd5b50565b600081359050610a9a81610a74565b92915050565b60008060008060808587031215610aba57610ab9610742565b5b6000610ac887828801610795565b945050602085013567ffffffffffffffff811115610ae957610ae8610747565b5b610af5878288016108c2565b935050604085013567ffffffffffffffff811115610b1657610b15610747565b5b610b22878288016108c2565b9250506060610b3387828801610a8b565b91505092959194509250565b7f54686573652066756e6374696f6e732063616e206f6e6c79206265206163636560008201527f73736564206279207468652076616c696461746f727300000000000000000000602082015250565b6000610b9b603683610984565b9150610ba682610b3f565b604082019050919050565b60006020820190508181036000830152610bca81610b8e565b9050919050565b7f4e487b7100000000000000000000000000000000000000000000000000000000600052602260045260246000fd5b60006002820490506001821680610c1857607f821691505b602082108103610c2b57610c2a610bd1565b5b5091905056fea2646970667358221220432525ef956f4c804dcf3603c345eeec134f6bea077ebfe542de4231692136a064736f6c634300080d0033",
  "immutableReferences": {},
  "source": "//SPDX-License-Identifier: MIT\r\npragma solidity ^0.8.0;\r\n\r\ncontract Validators{\r\n    struct validator{\r\n        string name;\r\n        string institution;\r\n        bool isadmin;\r\n    }\r\n\r\n    struct student{\r\n        string name;\r\n        string institution;\r\n        bytes32 file_hash;\r\n        string accountcreate;\r\n    }\r\n\r\n    mapping (address=>validator) val;\r\n    mapping (address=>student) studentCredentials;     \r\n\r\n    constructor(string memory nam, string memory inst){\r\n        // val[msg.sender].name=nam;\r\n        // val[msg.sender].isadmin=true;\r\n        // val[msg.sender].institution=inst;\r\n        val[msg.sender]=validator({\r\n            name : nam,\r\n            isadmin : true,\r\n            institution : inst\r\n        });\r\n    }\r\n\r\n    modifier isValidator(){\r\n        require(val[msg.sender].isadmin==true,\"These functions can only be accessed by the validators\");\r\n        _;\r\n    }\r\n    \r\n    // modifier sameInstitute(string memory inst ){\r\n    //     require(keccak256(abi.encodePacked(inst)) == keccak256(abi.encodePacked(val[msg.sender].institution)),\r\n    //         \"Should be from the same institute\");\r\n    //     _;\r\n    // }\r\n\r\n    function addValidator(address addr, string memory nam) public isValidator {\r\n        // val[addr].name=nam;\r\n        // val[addr].isadmin=true;\r\n        // val[addr].institution=val[msg.sender].institution;\r\n        val[addr]=validator({\r\n            name : nam,\r\n            isadmin : true,\r\n            institution : val[msg.sender].institution\r\n        });\r\n\r\n    }\r\n    \r\n    function addCredentials(address ad,string memory nam , string memory inst , bytes32 file_has)public isValidator{\r\n            \r\n        studentCredentials[ad].name = nam;\r\n        studentCredentials[ad].institution = inst;\r\n        studentCredentials[ad].file_hash = file_has;\r\n            \r\n    }\r\n\r\n    function getStudent(address studentAddr) public view returns (string memory, string memory, bytes32, string memory) {\r\n        student memory s = studentCredentials[studentAddr];\r\n        return (s.name, s.institution, s.file_hash, s.accountcreate);\r\n    }\r\n\r\n}",
  "sourcePath": "C:\\Users\\gost2\\OneDrive\\Desktop\\BlockChain\\contracts\\Validators.sol",
  "compiler": {
    "name": "solc",
    "version": "0.8.13+commit.abaa5c0e.Emscripten.clang"
  },
  "schemaVersion": "3.4.16",
  "updatedAt": "2025-01-14T14:28:25.905Z",
  "devdoc": {
    "kind": "dev",
    "methods": {},
    "version": 1
  },
  "userdoc": {
    "kind": "user",
    "methods": {},
    "version": 1
  }
}